:100000000C94C4020C94EC020C94EC020C947D1140
:100010000C947D110C947D110C94EC020C94EC0268
:100020000C94EC020C94F5110C94EC020C94EC0280
:100030000C94EC020C94EC020C94EC020C94EC0288
:100040000C9433110C94EC020C9401110C94DB1001
:100050000C94EC020C94EC020C94EC020C94EC0268
:100060000C94EC020C94EC024E414E494E4954590A
:10007000494E46CDCCCC3D0AD7233C17B7D1387773
:10008000CC2B329595E6241FB14F0A000020410089
:1000900000C84200401C4620BCBE4CCA1B0E5AAED3
:1000A000C59D7400407A10F35A00A0724E180900E2
:1000B00010A5D4E80000E87648170000E40B5402CD
:1000C0000000CA9A3B000000E1F505000080969808
:1000D00000000040420F000000A086010000001058
:1000E0002700000000E8030000000064000000009A
:1000F000000A00000000000100000000002C76D87B
:1001000088DC674F0823DFC1DFAE59E1B1B796E560
:10011000E3E453C63AE651997696E8E6C28426EBC4
:10012000898C9B62ED407C6FFCEFBC9C9F40F2BAD7
:10013000A56FA5F490055A2AF75C936B6CF9676D6F
:10014000C11BFCE0E40D47FEF520E6B500D0ED90C4
:100150002E0300943577050080841E080000204E91
:100160000A000000C80C333333330F986E1283112A
:1001700041EF8D2114893BE65516CFFEE6DB18D101
:10018000844B381BF77C1D901DA4BBE424203284D3
:10019000725E228100C9F124ECA1E53D2763646908
:1001A0006E6F70737578585B00506C6163696E6731
:1001B0002064656661756C742073657474696E671C
:1001C0007320696E20454550524F4D0080818384D5
:1001D0008687898A8C8D8F9192949597989A9B9D0A
:1001E0009EA0A1A3A4A6A7A9AAACADAFB0B2B3B478
:1001F000B6B7B9BABBBDBEBFC1C2C3C5C6C7C9CAFF
:10020000CBCCCECFD0D1D2D4D5D6D7D8D9DADBDDAE
:10021000DEDFE0E1E2E3E4E5E6E6E7E8E9EAEBEC8D
:10022000ECEDEEEFF0F0F1F2F2F3F4F4F5F5F6F7B1
:10023000F7F8F8F9F9F9FAFAFBFBFBFCFCFCFDFD19
:10024000FDFDFEFEFEFEFEFEFEFEFEFEFFFEFEFECF
:10025000FEFEFEFEFEFEFEFDFDFDFDFCFCFCFBFBCE
:10026000FBFAFAF9F9F9F8F8F7F7F6F5F5F4F4F31B
:10027000F2F2F1F0F0EFEEEDECECEBEAE9E8E7E6B4
:10028000E6E5E4E3E2E1E0DFDEDDDBDAD9D8D7D68C
:10029000D5D4D2D1D0CFCECCCBCAC9C7C6C5C3C2A4
:1002A000C1BFBEBDBBBAB9B7B6B4B3B2B0AFADACE7
:1002B000AAA9A7A6A4A3A1A09E9D9B9A989795944E
:1002C00092918F8D8C8A898786848381807E7C7BC6
:1002D000797876757372706E6D6B6A686765646243
:1002E000615F5E5C5B595856555352504F4D4C4BB5
:1002F00049484645444241403E3D3C3A393836350E
:10030000343331302F2E2D2B2A292827262524223D
:1003100021201F1E1D1C1B1A19191817161514133E
:10032000131211100F0F0E0D0D0C0B0B0A0A0908FA
:100330000807070606060505040404030303020272
:10034000020201010101010101010101010101019B
:10035000010101010101010202020203030304047D
:1003600004050506060607070808090A0A0B0B0C10
:100370000D0D0E0F0F101112131314151617181957
:10038000191A1B1C1D1E1F2021222425262728295F
:100390002A2B2D2E2F30313334353638393A3C3D27
:1003A0003E40414244454648494B4C4D4F505253C4
:1003B000555658595B5C5E5F6162646567686A6B3D
:1003C0006D6E707273757678797B7C7E005EBCE2B0
:1003D000613FDD83C29C7E20A3FD1F41009D23BEA3
:1003E00046DB65F88C11AF32CA57E9740000000093
:1003F000240027002A002020202045787465726E92
:10040000616C003C2D2D20494E5445524E414C000C
:1004100053746F726564206E65772044533138429F
:100420003230206164647265737300204453313844
:100430004232302773206F6E2062757300467265FA
:1004400065206D656D6F7279203D200056312E302C
:100450003100504954535633204156522046697258
:100460006D7761726520004750533D000000000821
:10047000000201000003040700000000000000006B
:100480004C4F52413D00535344563D004C4F524156
:100490003D5353445600426174743D0054656D7081
:1004A000002D25690070692D696E2D7468652D73A6
:1004B0006B792E636F6D0053656E6420415052530B
:1004C000204D6F646520636F6D6D616E64005365D0
:1004D0006E642041505253204672657120636F6DE7
:1004E0006D616E6400207365636F6E6473004E65AA
:1004F0007874207061636B657420696E20005365A9
:100500006E64696E672041505253205061636B6581
:10051000740053657474696E6720415052532070A3
:100520006172616D657465727300535344563D008A
:10053000535344563D00535344563D0056312E30DC
:1005400031005645523D00000000002300260029DE
:100550000000000000250028002B0004040404040F
:100560000404040202020202020303030303030160
:100570000204081020408001020408102001020437
:1005800008102000CB12512111241FBECFEFD8E05C
:10059000DEBFCDBF13E0A0E0B1E0E6E5FEE502C0BE
:1005A00005900D92A631B107D9F727E0A6E1B3E097
:1005B00001C01D92A63DB207E1F712E0C3ECD2E004
:1005C00004C02197FE010E94942BC23CD107C9F7B9
:1005D0000E94BB130C941E2F0C94000080911606F1
:1005E000882359F0E09115069FEF980F9093160617
:1005F000E81BF0E0E95EF94F82810895AF92BF9267
:10060000CF92DF92EF92FF920F931F93CF93DF93DE
:100610006C017B018B01040F151FEB015E01AE180D
:10062000BF08C017D10759F06991D601ED91FC912F
:100630000190F081E02DC6010995892B79F7C5015C
:10064000DF91CF911F910F91FF90EF90DF90CF90AE
:10065000BF90AF900895FC01538D448D252F30E05D
:10066000842F90E0821B930B541710F0CF960895BF
:1006700001970895FC01918D828D981761F0A28DEC
:10068000AE0FBF2FB11D5D968C91928D9F5F9F73B2
:10069000928F90E008958FEF9FEF0895FC01918D68
:1006A000828D981731F0828DE80FF11D858D90E0D5
:1006B00008958FEF9FEF0895FC01918D228D892F72
:1006C00090E0805C9F4F821B91098F73992708955A
:1006D00082EF96E00E945C0321E0892B09F420E080
:1006E000822F089580E090E0892B29F00E94680312
:1006F00081110C9400000895FC01A48DA80FB92F5E
:10070000B11DA35ABF4F2C91848D90E001968F7339
:100710009927848FA689B7892C93A089B1898C9158
:10072000837080648C93938D848D981306C00288A7
:10073000F389E02D80818F7D80830895EF92FF9271
:100740000F931F93CF93DF93EC0181E0888F9B8DF4
:100750008C8D98131AC0E889F989808185FF15C0AE
:100760009FB7F894EE89FF896083E889F9898081D1
:100770008370806480839FBF81E090E0DF91CF91A0
:100780001F910F91FF90EF900895F62E0B8D10E0C2
:100790000F5F1F4F0F731127E02E8C8D8E110CC031
:1007A0000FB607FCFACFE889F989808185FFF5CF7C
:1007B000CE010E947C03F1CFEB8DEC0FFD2FF11DDC
:1007C000E35AFF4FF0829FB7F8940B8FEA89FB89B9
:1007D00080818062CFCF0F931F93CF93DF938C01E3
:1007E000D0E0C0E0F801EC0FFD1F6491662341F0FA
:1007F00082EF96E00E949E03892B11F02196F2CFA2
:10080000CE01DF91CF911F910F910895682F82EF54
:1008100096E00C949E03CF93DF93EC01888D8823A0
:10082000B9F0AA89BB89E889F9898C9185FD03C053
:10083000808186FD0DC00FB607FCF7CF8C9185FF38
:10084000F2CF808185FFEDCFCE010E947C03E9CFFE
:10085000DF91CF910895833081F028F4813099F0B1
:100860008230A9F008958730A9F08830C9F084302B
:10087000B1F4809180008F7D03C0809180008F77DC
:1008800080938000089584B58F7784BD089584B5E2
:100890008F7DFBCF8091B0008F778093B00008955B
:1008A0008091B0008F7DF9CF1F93CF93DF93282FD6
:1008B00030E0F901E459FB4F8491F901E159FA4F15
:1008C000D491F901E55AFA4FC491CC23A9F0162F1F
:1008D00081110E942B04EC2FF0E0EE0FFF1FEF5A66
:1008E000FA4FA591B4918FB7F894EC91111108C00B
:1008F000D095DE23DC938FBFDF91CF911F910895B8
:10090000DE2BF8CFCF93DF9390E0FC01E159FA4F53
:100910002491855A9A4FFC0184918823D1F090E06C
:10092000880F991FFC01E451FC4FA591B491FC0183
:10093000EF5AFA4FC591D49161110EC09FB7F89448
:100940008C91E22FE0958E238C932881E223E8831B
:100950009FBFDF91CF9108958FB7F894EC91E22B70
:10096000EC938FBFF6CF3FB7F894809165039091D9
:100970006603A0916703B091680326B5A89B05C0E4
:100980002F3F19F00196A11DB11D3FBFBA2FA92F0E
:10099000982F8827BC01CD01620F711D811D911D0B
:1009A00042E0660F771F881F991F4A95D1F7089577
:1009B0008F929F92AF92BF92CF92DF92EF92FF926F
:1009C0006B017C010E94B3044B015C01C114D10492
:1009D000E104F104B9F00E94B304681979098A09A5
:1009E0009B09683E73408105910580F321E0C21A9E
:1009F000D108E108F10888EE880E83E0981EA11C5A
:100A0000B11CE4CFFF90EF90DF90CF90BF90AF90FC
:100A10009F908F9008952FB7F89460916103709123
:100A2000620380916303909164032FBF08950E9435
:100A30000B0584E98093BC008091BC0084FDFCCF51
:100A400080E00895CF938093BB000E940B0584E85B
:100A50008093BC008091BC0087FFFCCF8091B900DF
:100A6000887FC0E0883251F0C091B900C87F809182
:100A7000B900887F803329F40E9417058C2FCF910D
:100A800008951092BC0084E48093BC00F7CFCF930C
:100A90008093BB000E940B0584E88093BC0080918A
:100AA000BC0087FFFCCF8091B900887F8831E9F0D6
:100AB0008091B900887F8034C1F0C091B900C87FAF
:100AC0008091B900887F803269F08091B900887F79
:100AD000883441F01092BC0084E48093BC008C2FD9
:100AE000CF9108950E941705FACFC0E0F8CF0E9479
:100AF0000B0584EA8093BC008091BC0087FFFCCF8B
:100B00008091B900887F8830B9F08091B900887FE2
:100B1000803191F08091B900887F883349F48091C9
:100B2000B900887F1092BC0094E49093BC000895B3
:100B30008091B900887F089580E00895CF93C82FF1
:100B40000E940B0584ECC11101C084E88093BC00B5
:100B50008091BC0087FFFCCF8091B900887F8833EB
:100B600051F48091B900887F1092BC0094E4909376
:100B7000BC00CF9108958091B900887FFACF0F9380
:100B80001F93CF93DF93D82F162F10921606C1E034
:100B9000442321F0C42F413208F0C0E28FEF8C0FC4
:100BA00080931806109217060E9477058093170607
:100BB00081113CC0DD0F8D2F0E94470580931706E1
:100BC000882321F0813091F582E030C0812F0E948E
:100BD000220580931706882321F0813039F583E0C0
:100BE00025C00E94770580931706882321F0813065
:100BF000E9F484E01BC081E08D0F0E9447058093DB
:100C0000170609E116E0D0E0882321F0813071F465
:100C100085E00CC0809118068D1325C080E00E94ED
:100C20009E0580931706813031F486E0DF91CF91E5
:100C30001F910F9108958835C9F78091BB00F80185
:100C400081938F01DF5FD0931606D0931506CD13E5
:100C5000E1CF0E94170580931706882339F381306E
:100C600029F787E0E3CF81E00E949E058093170675
:100C70008130D9F2803509F3D9CFDC0180E06150B1
:100C800090F09D919827E92FEF70F0E0E453FC4F2E
:100C90002491E92FE295EF70F0E0E452FC4FE491EB
:100CA000822F8E27ECCF0895DC012C911196ED91C7
:100CB000FC91F8948181822B81839281322F30952F
:100CC0009323928387E090E00197F1F7818183235A
:100CD000818383E290E00197F1F790817894EFECC3
:100CE000F0E03197F1F7922381E009F480E0089574
:100CF000FC0190810180F281E02D292F209560FF79
:100D000014C0F8948281822382838181892B81831C
:100D1000A3E2B0E01197F1F78281982B9283789447
:100D200087ED90E00197F1F70895F894828182238E
:100D300082838181892B8183AFEFB0E01197F1F736
:100D40008281982B928378948FE090E0EBCFDF92B2
:100D5000EF92FF920F931F93CF93DF93EC01D62E68
:100D6000E42E08E010E0FF24F39461E08D2D8F2144
:100D700009F460E0CE010E947806FF0C01501109D1
:100D8000A1F7E11010C0F894E981FA81918188817E
:100D9000809589238183E981FA8192818881809578
:100DA000892382837894DF91CF911F910F91FF90D7
:100DB000EF90DF900895EF92FF920F931F93CF93E0
:100DC000DF938C017B0140E065E50E94A706E70107
:100DD00088E0E80EF11C699140E0C8010E94A70676
:100DE000CE15DF05C1F7DF91CF911F910F91FF90D5
:100DF000EF900895FC0190810180F281E02DF8943C
:100E00008181292F20958223818378943DE743E0D7
:100E100050E0315029F1DA011197F1F780818923EF
:100E2000C1F3F8948281822382838181892B81831B
:100E30007894ABE7B7E01197F1F7F89481818223BA
:100E40008183A3E1B1E01197F1F78081982381E0DC
:100E500009F080E07894E3E6F6E03197F1F7089541
:100E600080E008958F929F92AF92BF92CF92DF92CF
:100E7000EF92FF920F931F93CF93DF938C01EB01BF
:100E800080919507909196070E94FA06811102C001
:100E900090E03EC0B80180919507909196070E941E
:100EA000DB0640E06EEB80919507909196070E94DB
:100EB000A7068E015E0189E0A80EB11C80909507FF
:100EC0009090960788E0C82ED12CF12CEE24E39464
:100ED000C4010E9454068111FE28EE0CE1E0CE1AF6
:100EE000D108B1F7F801F1928F01EA15FB0531F74E
:100EF00080919507909196070E94FA06813041F6FD
:100F000068E0CE010E943D0691E028852813C0CFFD
:100F1000892FDF91CF911F910F91FF90EF90DF907C
:100F2000CF90BF90AF909F908F900895CF93DF9315
:100F3000CDB7DEB729970FB6F894DEBF0FBECDBF91
:100F4000BE016F5F7F4F0E943207882331F08D8191
:100F50008F33A9F020F48F31A1F080E007C08F35E6
:100F600021F08F37D1F78CE001C08BE029960FB6C6
:100F7000F894DEBF0FBECDBFDF91CF9108958AE018
:100F8000F5CF89E0F3CF20916C0330916D032817E2
:100F9000390771F490916A0380916B03981741F0BF
:100FA000E0916A03F0E0E05EFC4F808190E00895FC
:100FB0008FEF9FEF08950895EF92FF920F931F9385
:100FC000CF93DF93DC015C96ED90FC905D97E1148C
:100FD000F10479F481E090E013969C938E9312973C
:100FE00090E080E0DF91CF911F910F91FF90EF9003
:100FF00008955196ED91FC91529750968C9150978F
:10100000982F90950FB75E962C915E97122F1270C5
:1010100021FD6095F8942081112319F1282B20835C
:10102000E7012197F1F728E0462F50E0308160FF7B
:101030001AC0382B3083E7012197F1F7BA01759573
:101040006795215089F7112381F08081892380835E
:101050000FBF5C968D919C910197F1F781E090E034
:10106000C1CF2923DCCF3923E5CF9081892BEFCF66
:1010700020916C0330916D032817390771F480912A
:101080006B0320916A0390E0805C9F4F821B910963
:1010900060E470E00E94802B089590E080E0089565
:1010A00020916C0330916D0328173907B9F49091A2
:1010B0006A0380916B03981789F0E0916A03F0E06E
:1010C000E05EFC4F808120916A0330E02F5F3F4F4C
:1010D0002F73332720936A0390E008958FEF9FEFDB
:1010E000089590E080E008958EBD00000DB407FEE5
:1010F000FDCF8EB50895CF93DF93D82FC62F60E034
:101100008AE00E9454048D2F80680E9474088C2FFE
:101110000E94740861E08AE0DF91CF910C9454043E
:10112000EF92FF920F931F93CF93DF938C01F62ED4
:10113000FC018281809376038381809375031092F2
:1011400017060E9477058093170681111FC084E857
:101150000E94470580931706811118C00E9422053E
:1011600080931706811112C0E02EC02FD12F8991D4
:101170000E94220580931706811108C08C2F8E19BA
:101180008F15A8F30E94170580931706DF91CF9162
:101190001F910F91FF90EF900895CF93DF93CDB7FC
:1011A000DEB760970FB6F894DEBF0FBECDBF90E1FB
:1011B000EEE0F1E0DE01119601900D929A95E1F7D3
:1011C0008887FE0133969E01215F3F4F90E080E0CB
:1011D0004191840F980FE217F307D1F78F87988B0F
:1011E00060E170E0CE0101960E94900860960FB613
:1011F000F894DEBF0FBECDBFDF91CF910895CF939E
:10120000DF93DC01FC0186E020E4EB019881992367
:1012100091F06F5F7F4F990F9083815031968111CC
:10122000F4CF405D440F16964C931697CD01079668
:10123000DF91CF9108952083F0CF8F929F92AF924C
:10124000BF92EF92FF920F931F93CF93DF93C62F1E
:101250008C01060F111DF8011082D62F78018BE545
:10126000882E912CA12CB12CB901CA01A5019401A1
:101270000E941C2A6F5DF70162937F01D150A1F794
:10128000C1508C2F90E080959095800F911FDF9139
:10129000CF911F910F91FF90EF90BF90AF909F90D3
:1012A0008F900895BF92CF92DF92EF92FF920F93AB
:1012B0001F93CF93DF93EC01B62EC72E8D8581113E
:1012C00005C0CE010E94FA0681110EC01B861D8644
:1012D0001C8680E0DF91CF911F910F91FF90EF90DE
:1012E000DF90CF90BF90089540E060EFCE010E9464
:1012F000A70601E0E12CD12C11E0CE010E9454069A
:10130000F82ECE010E94540691E0F91218C08130E7
:1013100099F51134D8F2DB86D11002C081E08D87B7
:101320008B81882399F22396EB2DFC2DCF01089613
:1013300029912193E817F907D9F781E0CBCFEE2D5A
:10134000F0E0F8120FC08B851817A0F4DE01AE0F85
:10135000BF1F13968C91802379F4F12C193008F477
:101360001C87D12EEC0FFD1F8381902F9095892330
:1013700083830AC08113F1CFFE01EE0DF11D83813D
:10138000802B8383FF24F3946F2DCE010E94780677
:101390001F5F000F11F4E39401E087E08E1508F061
:1013A000ACCFB7CFFF920F931F93CF93DF938C01F6
:1013B000F62EE0919507F091960713861586148610
:1013C0001286118610861782168215821482138265
:1013D000C0E0B80180919507909196070E9452094C
:1013E000D82F882329F0FC1629F0CF5FFC1688F748
:1013F000D0E008C067E0C8010E943D06F80197816F
:101400008913F3CF8D2FDF91CF911F910F91FF9013
:101410000895CF92DF92EF92FF92CF93DF9360E82F
:1014200081E00E947B0820E030E049ED5AE46091C1
:101430005B0670915C0680915D0690915E060E944D
:10144000DC2820E030E049ED53E40E94BA2A0E94F3
:10145000332B6B017C01B7018827992786E00E9416
:101460007B0899278F2D7E2D6D2D87E00E947B08AC
:101470006C2D88E00E947B0860915F06D0E06111CE
:10148000DFEF80916006682B80916106682B8DE10B
:101490000E947B086091620664608EE10E947B0876
:1014A00060916306646086E20E947B0860E08AE0E7
:1014B0000E94540481E30E94740880E00E94740832
:1014C000C82F61E08AE00E945404C87F80916206C0
:1014D00063E0803609F465E06C2B81E30E947B08B1
:1014E000809162066AE0803609F46CE087E30E942E
:1014F0007B086D2F82E20E947B086D2F83E10E94A2
:101500007B0860E480E40E947B0860E081E40E9444
:101510007B0880910401813899F061E881E00E94A4
:101520007B0881E8809304016AE070E080E090E04D
:10153000DF91CF91FF90EF90DF90CF900C94D80483
:10154000DF91CF91FF90EF90DF90CF900895EF92D1
:10155000FF920F931F93CF93DF937C01EB010E94C7
:101560000B05609304047093050480930604909324
:1015700007041092000410920104109202041092C9
:1015800003040E94090A80910401813869F061E82E
:1015900081E00E947B0881E8809304016AE070E0AA
:1015A00080E090E00E94D80460E08EE00E947B081A
:1015B00060E08DE00E947B0860E08AE00E945404B5
:1015C00080E80E9474088701C8018E199F098C1752
:1015D0009D0734F4F80181918F010E947408F4CFC3
:1015E00061E08AE00E94540480915F06882311F034
:1015F000CFEFD0E06C2F82E20E947B088091040143
:101600008338A9F060E08CE00E947B0868E889E0FC
:101610000E947B0863E881E00E947B0883E8809356
:1016200004016AE070E080E090E00E94D80482E06B
:1016300090E09093090480930804DF91CF911F916B
:101640000F91FF90EF9008951F93CF93DF93CDB745
:10165000DEB71D8540E062EA71E08EE896E00E9408
:10166000FF08488563E776E00E94FF082C85222367
:1016700029F041E069EA71E00E94FF08112329F096
:10168000412F6FEA71E00E94FF08FC012291216066
:10169000208323E0DC012C93FC01329620EF11968D
:1016A0002C9360EF76E06E1B7F0B9E01205F3F4F17
:1016B0004E855F85CF010E94032CAEE8B6E08FEF28
:1016C0009FEFFD012D91222391F08227082E829514
:1016D000807F8025092E982F82958F700826869509
:1016E00098278927880F880F880F8025EACF809553
:1016F0008083892F809581838EE896E090938D0674
:1017000080938C06EC58F640E0938B068091700035
:10171000816080937000DF91CF911F910895FB014C
:1017200001900020E9F73197AF01461B570BDC0110
:10173000ED91FC910280F381E02D09948F929F92AC
:10174000AF92BF920F931F93CF93DF93CDB7DEB7C6
:10175000A1970FB6F894DEBF0FBECDBF19A24230DD
:1017600008F44AE08E010F5D1F4F842E912CB12C9E
:10177000A12CA50194010E941C2AE62FB901CA01DF
:10178000EA3004F5E05DD801EE938D01232B242B84
:10179000252B79F790E080E0109729F0BD0182EFCA
:1017A00096E00E948F0BA1960FB6F894DEBF0FBE95
:1017B000CDBFDF91CF911F910F91BF90AF909F90C0
:1017C0008F900895E95CDFCFCF92DF92EF92FF9286
:1017D000CF93DF9397FF19C06B017C018DE20E94CC
:1017E0000604EC0166277727CB016C197D098E0969
:1017F0009F094AE00E949E0B8C0F9D1FDF91CF91A5
:10180000FF90EF90DF90CF9008954AE0DF91CF9165
:10181000FF90EF90DF90CF900C949E0BCF93DF93CF
:10182000BC01990F880B990B0E94E40BEC0163E754
:1018300072E082EF96E00E948F0B8C0F9D1FDF916C
:10184000CF910895CF93DF930E94EB03EC0163E700
:1018500072E082EF96E00E948F0B8C0F9D1FDF914C
:10186000CF910895CF93DF93BC0190E080E04AE0F0
:101870000E949E0BEC0163E772E082EF96E00E940B
:101880008F0B8C0F9D1FDF91CF9108954F925F9228
:101890006F927F928F929F92AF92BF92CF92DF9280
:1018A000EF92FF92CF936B017C01AC019B010E94F0
:1018B000672B65EB71E0811126C046015701E89462
:1018C000B7F82FEF3FEF4FE75FE7C501B4010E9484
:1018D000672B81110CC02FEF3FEF4FE75FE7C5018A
:1018E000B4010E94762869EB71E0181664F02FEFBE
:1018F0003FEF4FE75FE4C701B6010E94622B181665
:101900009CF46DEB71E082EF96E0CF91FF90EF9049
:10191000DF90CF90BF90AF909F908F907F906F900F
:101920005F904F900C948F0B2FEF3FEF4FE75FECE2
:10193000C701B6010E94762887FDE3CF20E030E0A2
:10194000A901C701B6010E947628B12CA12C87FFFE
:1019500008C08DE20E9406045C01F7FAF094F7F8E3
:10196000F0942BEA35EC47EA56E3C701B6010E9432
:101970004E2A2B013C010E94332B6B017C010E94FB
:101980007B289B01AC01C301B2010E944D2A2B01AF
:101990003C014AE0C701B6010E949E0B7C01EA0CA3
:1019A000FB1C8EE20E940604E80EF91EC6E0C15040
:1019B00019F120E030E040E251E4C301B2010E949D
:1019C000DC282B013C010E94332B4B01B12CA12CB4
:1019D0004AE0C501B4010E949E0BE80EF91EC50144
:1019E000B4010E947B289B01AC01C301B2010E949B
:1019F0004D2A2B013C01DBCFC701CF91FF90EF9027
:101A0000DF90CF90BF90AF909F908F907F906F901E
:101A10005F904F900895CF93DF93BC0182EF96E0E3
:101A20000E948F0BEC0163E772E082EF96E00E9468
:101A30008F0B8C0F9D1FDF91CF9108950F931F93F4
:101A4000CF93DF9364E490E080E00E94A52961E4F5
:101A500081E090E00E94A52909E316E0C2E0D0E011
:101A6000F80161918F01CE010E94A5292196C4350C
:101A7000D105B1F7DF91CF911F910F910895CF93C9
:101A800061EC71E089E396E00E94B22B6AEC71E0B0
:101A900089E496E00E94B22BE9E3F6E080ED97E05E
:101AA00091A380A343E353E269ED73E442A353A3FC
:101AB00064A375A3C1E0C3A715A614A62FEF3FEF3B
:101AC00037A726A716A228E027A330E330A730EBDC
:101AD00031A722A724E030E031AB20AB28E030E092
:101AE00033AB22AB95AB84AB8DEC9CECA0E1B3E4C3
:101AF00086AB97ABA0AFB1AF65E772E083E796E046
:101B00000E94B22B10927A068CED95E090937C06A1
:101B100080937B06C0937D0684E190E090937F06DE
:101B200080937E06C09380061092810610928206F2
:101B300089EA91E00E94220CCF910C941E0DCF9265
:101B4000DF92EF92FF92CF93DF938091D00587349D
:101B500039F58091D105803591F482ED95E00E94B0
:101B6000EB2190930901809308018FED91E0DF91C3
:101B7000CF91FF90EF90DF90CF900C940B0D8634B7
:101B800009F09AC282ED95E00E94EB2180342FE1AA
:101B9000920708F091C290935A0680935906E5CFB8
:101BA000833409F05DC08091D1058834D9F481E097
:101BB00090E02091D205213311F090E080E09093E5
:101BC000CE058093CD050E940B056053784F8F4F53
:101BD0009F4F6093C9057093CA058093CB0590937E
:101BE000CC05C3CF803599F482ED95E0FC010190DE
:101BF0000020E9F7CF01835D9540409708F05CC273
:101C000062ED75E089E396E00E94B22BAECF863498
:101C100089F482ED95E0FC0101900020E9F7CF0105
:101C2000835D9540409708F047C262ED75E089E416
:101C300096E0EACF823519F40E943F0D96CF8335A6
:101C400019F40E941E0D91CF863509F035C282E449
:101C500095E00E94EB038CE395E00E94220C85CF77
:101C60008C3409F0A2C08091D105863409F582ED4B
:101C700095E00E94E7216B017C0120E030E048EC18
:101C800053E40E94622B87FD17C220E030E04AE750
:101C900054E4C701B6010E94762887FF0DC2C092A6
:101CA0005B06D0925C06E0925D06F0925E065DCF28
:101CB000833581F482ED95E00E94EB219C01265052
:101CC00031092730310508F0F7C18295807F809374
:101CD00062064BCF893459F482ED95E00E94EB21E6
:101CE00021E0892B09F420E020935F063ECF853464
:101CF00081F482ED95E00E94EB219C012550310991
:101D00002430310508F0D8C18450880F80936006D4
:101D10002CCF823469F482ED95E00E94EB218A3069
:101D2000910508F0C9C18295807F809361061DCF1F
:101D3000833459F482ED95E00E94EB2184319105C2
:101D400008F0BAC18093640610CF8C3461F482ED40
:101D500095E00E94EB21892B21F088E080936306B7
:101D600004CF80E0FBCF843569F482ED95E00E94DA
:101D7000EB218D33910508F09FC190936606809307
:101D80006506F3CE8F3409F097C182ED95E00E948D
:101D9000EB219C012F5F3F4F2D33310508F08CC1A3
:101DA0009093680680936706E0CE813409F081C085
:101DB0008091D105803589F482ED95E0FC01019098
:101DC0000020E9F7CF01835D9540079708F074C1C3
:101DD00062ED75E083E796E017CF863411F582ED6A
:101DE00095E00E94E7216B017C0120E030E046E0B5
:101DF00053E40E94622B87FD5FC120E030E04EE299
:101E000053E4C701B6010E94762818160CF454C199
:101E1000C0926F06D0927006E0927106F092720640
:101E2000A4CE833559F482ED95E00E94EB218F30EA
:101E3000910508F041C180937A0697CE813449F428
:101E400082ED95E00E94EB2190937C0680937B06C7
:101E50008CCE873539F482ED95E00E94EB2180939A
:101E60007D0683CE893449F482ED95E00E94EB2112
:101E700090937F0680937E0678CE823539F482ED8A
:101E800095E00E94EB21809381066FCE8D3439F46A
:101E900082ED95E00E94EB218093800666CE84352A
:101EA00009F00AC182ED95E00E94EB218093820641
:101EB0005CCE833509F0A6C08091D105833429F426
:101EC0001092C8051092C70550CE803509F051C058
:101ED000C091C705D091C805A2EDB5E031E041E061
:101EE0008D918823D1F190ED980F3323D9F09A305A
:101EF00058F4082E000C990BC097282F2295207FAC
:101F0000F42FF31B3F2FECCF8154863248F4E82F97
:101F1000F0E0E85AFE4F8081082E000C990BEDCFBF
:101F200080E0EBCF9A3058F4082E000C990BC09744
:101F3000280FFE01E953FB4F20832196E1CF815406
:101F4000863248F4E82FF0E0E85AFE4F8081082EF0
:101F5000000C990BEDCF80E0EBCFD093C805C09378
:101F6000C70586E395E00E94EB03CE010E94320C88
:101F7000FCCD8234C1F4C091C705D091C805E2ED13
:101F8000F5E0DE01A953BB4F82EF95E021912D933F
:101F90008E179F07D9F7A096D093C805C093C705A1
:101FA00080E395E0E0CF833549F48AE295E00E9432
:101FB000EB038091C7059091C805D8CF893409F00B
:101FC0007BC08DE696E09F938F9380916C068F93F4
:101FD00080916B068F9389E696E09F938F9386EDB1
:101FE00091E09F938F9382ED95E09F938F930E9452
:101FF000EA2B8DB79EB70A960FB6F8949EBF0FBE18
:102000008DBFB3CD863409F057C08091D10581349E
:1020100069F482ED95E00E94E7216093C10470931A
:10202000C2048093C3049093C4049FCD8F3469F499
:1020300082ED95E00E94E7216093BD047093BE0499
:102040008093BF049093C00490CD843569F482EDF1
:1020500095E00E94E7216093A4047093A504809307
:10206000A6049093A70481CD873469F482ED95E0AE
:102070000E94E7216093A0047093A1048093A204BE
:102080009093A30472CD8535B9F482ED95E00E945A
:10209000EB21092E000CAA0BBB0B8093A804909394
:1020A000A904A093AA04B093AB0485E090E09093B8
:1020B000C6048093C50459CD81EE91E058CDEF92CE
:1020C000FF920F931F93CF93DF93F12CE12CC0E28B
:1020D000D0E001E010E082EF96E00E945C03892BE3
:1020E00009F461C082EF96E00E943A032091180340
:1020F0003091190321153105F1F0409116035091EB
:102100001703BA016F5F7F4F709317036093160335
:1021100041535A4FFA0180832150310930931903FA
:1021200020931803232B79F40E949F0D109217031C
:102130001092160308C08E3751F48093CF05109388
:10214000170300931603EE24E394F12CC4CF2091DF
:102150001603309117038D3029F421533A4FF901BA
:102160001082E2CF2634310508F72115310559F3E5
:10217000A9014F5F5F4F50931703409316032153FC
:102180003A4FF901808343305105E9F68091D0053B
:102190008335C9F68091D1058234A9F6D09319030D
:1021A000C0931803D0CFC701DF91CF911F910F913A
:1021B000FF90EF9008951F920F920FB60F92112487
:1021C0002F933F934F935F936F937F938F939F933F
:1021D000AF93BF93EF93FF9382EF96E00E947C034F
:1021E000FF91EF91BF91AF919F918F917F916F91EF
:1021F0005F914F913F912F910F900FBE0F901F90C5
:1022000018951F920F920FB60F9211242F938F9350
:102210009F93EF93FF93E0910207F0910307808172
:10222000E0910807F091090782FD1BC09081809121
:102230000B078F5F8F7320910C07821741F0E0919D
:102240000B07F0E0EE50F94F958F80930B07FF914D
:10225000EF919F918F912F910F900FBE0F901F9034
:1022600018958081F4CF1F920F920FB60F92112410
:102270002F933F938F939F93AF93BF93809161036D
:1022800090916203A0916303B09164033091600365
:1022900023E0230F2D3758F50196A11DB11D209382
:1022A00060038093610390936203A0936303B093F0
:1022B00064038091650390916603A0916703B091D8
:1022C00068030196A11DB11D809365039093660379
:1022D000A0936703B0936803BF91AF919F918F91D3
:1022E0003F912F910F900FBE0F901F90189526E8E9
:1022F000230F0296A11DB11DD2CF1F920F920FB6D0
:102300000F9211242F933F934F935F936F937F937B
:102310008F939F93AF93BF93EF93FF93E0916C03E1
:10232000F0916D03309749F0A685B7858585968D28
:1023300091FF14C09C918923A1F4FF91EF91BF916B
:10234000AF919F918F917F916F915F914F913F914D
:102350002F910F900FBE0F901F9018959C9189237D
:1023600061F7A389B4899C918589809589238C9391
:10237000868997890197F1F7608D718DA685B7855C
:10238000558538E020E0CB010197F1F7822F90E0EE
:1023900095958795282F4C91452309F02068315059
:1023A00091F7868D81FD209580916B0390E00196D9
:1023B0008F73992730916A03381799F0A0916B03B6
:1023C000B0E0A05EBC4F2C9380936B03828D938D05
:1023D0000197F1F7A389B4898C919589892B8C9306
:1023E000ACCF868D8160868FF1CF1F920F920FB692
:1023F0000F9211242F933F934F935F936F937F938B
:102400008F939F93AF93BF93EF93FF93E0911E033E
:10241000F0911F03EE0FEF2FEE1FFF0BF195E4532A
:10242000FE4FE491E093B40080910201909103018A
:1024300020911E0330911F03280F391F30931F0373
:1024400020931E0320911C0330911D032F5F3F4FEB
:1024500024333105A8F430931D0320931C03FF910E
:10246000EF91BF91AF919F918F917F916F915F910C
:102470004F913F912F910F900FBE0F901F90189585
:1024800010921D0310921C0330911B03353059F438
:1024900028EE82272DE0922790930301809302017A
:1024A00010921B03DCCF209101012F5F2830A1F097
:1024B0002093010130911A03432F50E020911B0318
:1024C00030FF5CC027FD03C02F5F20931B03559591
:1024D000479540931A03C3CF109201012091000148
:1024E0002630F0F440918B064423D1F0E0918C0625
:1024F000F0918D06AF014F5F5F4F50938D06409373
:102500008C06208120931A0320918B062150209362
:102510008B06222379F137FFCDCF10921B03CACF50
:1025200021502093000121111EC061E088E00E942B
:102530005404809170008E7F8093700010921D0370
:1025400010921C0310921F0310921E038AEE94E057
:10255000909303018093020187E38093000187E059
:10256000809301019DCF2EE720931A032FEF209334
:102570001B03A0CF27E020930001CDCF38EE8327A7
:102580003DE09327909303018093020127FD9FCFA5
:1025900010921B039CCF1092F5061092F40688EE61
:1025A00093E0A0E0B0E08093F6069093F706A09346
:1025B000F806B093F90622E831E03093F306209351
:1025C000F20625EC30E03093FF062093FE0624EC63
:1025D00030E0309301072093000720EC30E0309387
:1025E00003072093020721EC30E030930507209386
:1025F000040722EC30E0309307072093060726EC0F
:1026000030E0309309072093080710920B071092CF
:102610000C0710920D0710920E071092B40710923B
:10262000B3078093B5079093B607A093B707B0930D
:10263000B80784E991E09093B2078093B1071092B4
:10264000C8071092C7071092CA071092C9071092C4
:10265000CC071092CB071092CE071092CD07609155
:10266000CF076E7F6D7F6093CF076695617081E0C5
:1026700068278FE00E94540461E08FE00E9482048A
:10268000EEE7F5E0E491E093C107EAE6F5E0E491D6
:10269000F0E0EE0FFF1FEF5AFA4F8591949190935F
:1026A000C3078093C20760E080E10E9482048091AA
:1026B000CF0781FD04C061E080E10E94540480E105
:1026C0008093BD07EFE7F5E0E491E093BE07EBE60A
:1026D000F5E0E491F0E0EE0FFF1FE95BFA4F859122
:1026E00094919093C0078093BF0760E085E00E94BB
:1026F0008204E4E7F5E0E491E093A307E0E6F5E087
:10270000E491F0E0EE0FFF1FE95BFA4F85919491A1
:102710009093A5078093A4071092AE071092B0077C
:102720001092AF071092AD071092AC071092AB0752
:102730001092AA071092A9071092A8071092A70753
:102740001092A60783EA97E09093960780939507E7
:10275000109293071092940710928F0789E080934C
:10276000900781E080939107809392071092A207CF
:102770001092A1070895CF93DF93CDB7DEB7C6546B
:10278000D1090FB6F894DEBF0FBECDBF789484B5E3
:10279000826084BD84B5816084BD85B5826085BD5D
:1027A00085B5816085BD80916E00816080936E00EB
:1027B00010928100809181008260809381008091DD
:1027C000810081608093810080918000816080938E
:1027D00080008091B10084608093B1008091B0004E
:1027E00081608093B00080917A00846080937A0049
:1027F00080917A00826080937A0080917A00816073
:1028000080937A0080917A00806880937A00109299
:10281000C100E0910207F091030782E08083E0911C
:10282000FE06F091FF061082E0910007F09101078B
:102830008FEC808310920A07E0910607F09107075A
:1028400086E08083E0910407F09105078081806134
:102850008083E0910407F091050780818860808380
:10286000E0910407F0910507808180688083E09102
:102870000407F091050780818F7D808385E792E0D2
:102880000E940B0D82E594E00E94EB038CE494E03F
:102890000E94220C8DE394E00E94EB039E012F5FC7
:1028A0003F4F19018091D0079091D107009711F403
:1028B00086ED97E0A101481B590BCA010E940E0C3E
:1028C00090E080E00E949D29843409F0F1C081E00D
:1028D00090E00E949D29813409F0EAC002E010E0F6
:1028E00089E3E82E86E0F82EC8010E949D29D701D1
:1028F0008D937D010F5F1F4F04351105A9F761E02E
:1029000089E00E94820461E089E00E94540461E051
:1029100086E00E94820460E086E00E945404449AAB
:10292000459A8091B9008E7F8093B9008091B9005B
:102930008D7F8093B90088E48093B80084E480930D
:10294000BC0081E08093070160E08EE00E94820479
:1029500061E08AE00E94820460E083E00E948204D9
:102960001FB7F89480916903811127C0E5E6F5E06F
:102970008491E9E7F5E09491E82FF0E0EE0FFF1F76
:10298000E451FC4FA591B491EC91E92321F461E06D
:102990008AE00E94540461E08AE00E9482048CB5BF
:1029A00080618CBD8CB580648CBD61E08DE00E943F
:1029B000820461E08BE00E948204809169038F5F52
:1029C000809369031FBF0E94090AE0919507F09167
:1029D000960713861586148612861186108617822E
:1029E0001682158214821382109293071092940714
:1029F00001E0B10180919507909196070E945209DC
:102A0000882309F467C067E0C1010E943D069885EC
:102A10008913EFCF80918F07811126C08091950790
:102A2000909196070E94FA06B101809195079091C6
:102A300096070E94DB0640E064EB80919507909139
:102A400096070E94A70680919507909196070E948D
:102A50005406182F80919507909196070E94FA06C8
:102A6000111102C000938F07109190078981803166
:102A700011F40C944421C1010E9496078117D8F4E7
:102A80008091900780939007809193078F5F809348
:102A900093078981883231F0B8F4803119F082329D
:102AA00009F0A7CF809194078F5F80939407A1CFFF
:102AB0000E943F0D24CF8981803111F48CE0E2CF58
:102AC000C1010E949607DECF8B3361F3823409F097
:102AD00090CFE8CF60919307862F90E09093810488
:102AE0008093800470E090E080E00E94E40B8BE231
:102AF00094E00E94220CE0908004F09081049E2DCE
:102B00008F2DB3E0EB16F10414F092E080E0909387
:102B10008004809381041E141F040CF0D1C089E04E
:102B200080939007D12CC12C0FE5FFE7BF2EAFE1BA
:102B3000AA2EBFE39B2E809193078C151D0409F0EC
:102B40000CF4A0C06C2DCE018D960E94D20910917C
:102B500090071D3008F11CE08DA5803109F1CE01F0
:102B60008D960E949607811709F484C0B101CE01A9
:102B70008D960E943207882309F47CC08DA5803190
:102B800009F478C01B3009F479C01C3059F01A30B0
:102B900009F076C09D8207C01930F0F619E0DCCF4D
:102BA0008CE0E1CFBD8280919507909196070E94BD
:102BB000FA06BE01635D7F4F80919507909196075D
:102BC0000E94DB0640E06EE48091950790919607A5
:102BD0000E94A70640E06B8180919507909196072F
:102BE0000E94A70640E06C8180919507909196071E
:102BF0000E94A7068DA5803141F040E06D81809153
:102C00009507909196070E94A7068091950790914D
:102C100096070E94FA06BE01635D7F4F809195077B
:102C2000909196070E94DB0640918F0768E480919F
:102C30009507909196070E94A70664E170E080E0F6
:102C400090E00E94D80480918F07882331F06AE0D9
:102C500070E080E090E00E94D80480919507909108
:102C600096070E94FA0680919007811708F4812F39
:102C700080939007EFEFCE1ADE0A5DCF0D8393CFDE
:102C8000AD8291CFEA94EF28D9F460E0C1010E94AF
:102C9000D20948E050E063E876E0C1010E949A2B37
:102CA000892B71F088E0F101A3E8B6E001900D9264
:102CB0008A95E1F70E941E0D80E194E00E94220CAB
:102CC00010E06E0129E0C20ED11C80918004909129
:102CD00081041817190684F5612FC1010E94D209D9
:102CE0007101D7018D917D01803118F480E30E943C
:102CF0000604F7013197608170E090E080E040E1E8
:102D00000E949E0B80E20E940604CE14DF0449F765
:102D100048E050E063E876E0C1010E949A2B892BDD
:102D200041F41093B80483E094E00E94220C1F5FEA
:102D3000CCCF86EF93E0F9CF61E089E00E94820476
:102D400060E089E00E94540464E670E080E090E076
:102D50000E94D80461E088E00E94820461E088E07B
:102D60000E94540464E670E080E090E00E94D80481
:102D700061E089E00E94540464EF71E080E090E03B
:102D80000E94D80461E084E00E94820483E2809380
:102D9000B00081E08093B1001092CC071092CB0775
:102DA0001092CA071092C9071092C8071092C7075D
:102DB0008DE991E09093CE078093CD079091BD0768
:102DC000963108F047C02DEB30E03093C8072093D0
:102DD000C7072BE931E03093CA072093C9072CE2DB
:102DE00031E03093CC072093CB072091680084E03A
:102DF000983048F031E09E3008F430E081E001C0C6
:102E0000880F3A95EAF7822B809368002DE630E030
:102E1000983050F02BE630E09E3030F02CE630E079
:102E2000963110F030E020E03093C5072093C407BE
:102E3000292F30E0983008F062C081E001C0880F8F
:102E40009A95EAF78093C6078091CD079091CE07B7
:102E50000197F1F78091CB079091CC07892B49F12D
:102E6000E0916C03F0916D03B7E0E13BFB0709F1E2
:102E7000309739F0A389B4899C91858980958923FD
:102E80008C938091CF078E7F8093CF0710926B0336
:102E900010926A0381EB97E090936D0380936C032B
:102EA000E091C407F091C50780819091C607892BF6
:102EB0008083FE0131966F018091CD059091CE0502
:102EC000892BF1F10E945F10892B31F10E940B05D3
:102ED0006053784F8F4F9F4F6093C9057093CA0519
:102EE0008093CB059093CC0580E090E0892B21F373
:102EF0000E946803882301F30E940000DACF9E300D
:102F000040F42850310981E001C0880F2A95EAF782
:102F100099CF2E503109F7CF0E940B050091C905BA
:102F20001091CA052091CB053091CC0506171707E3
:102F300028073907C8F61092CE051092CD05D4CFD8
:102F40000E945F10E3EE6E2EE1E07E2E42E06DEF18
:102F500082E40E94BF050E94EE02082F0E94EE024A
:102F600010E0102F0027080F111D0132110514F574
:102F70000115110509F5102FF12C88248A9462E0BF
:102F8000462E512CF11608F028C20E94EE02209124
:102F9000F9033091FA03853BA9F425303105A0F5FA
:102FA0008093790321E030E03093FA032093F90312
:102FB000F394E8CF00E210E0402F6FEF82E40E942C
:102FC000BF05D9CF823681F425303105E8F4232BB3
:102FD00019F435EB3093790342E640937A0350922B
:102FE000FA034092F903E4CF843271F421153105DC
:102FF00011F00C944A218093790381E090E0909342
:10300000FA038093F903D4CF2E37310528F01092BC
:10301000FA031092F903CCCF2115310549F29091B2
:103020007903953B09F073C1A9014F5F5F4F50933E
:10303000FA034093F90327583C4FD9018C9346304B
:10304000510571F480917E0390E0982F882720919C
:103050007D03820F911D9093780380937703A8CF0F
:103060004730510508F4A4CF8091770390917803FD
:1030700008964817590708F49BCF80917B03853049
:10308000F1F480917C03813061F480917603863085
:1030900041F480917503843269F480916E038093CA
:1030A000BB0480917B038093760380917C038093A3
:1030B0007503ADCF8131A9F78092BC04F2CF813086
:1030C00081F780917C03873061F70091930300932F
:1030D000B2048091960390E09093AD048093AC0489
:1030E0000023F9F260917F03709180038091810346
:1030F0009091820328EE33E040E050E00E941C2AC9
:10310000CA01B90120E831E541E050E00E941C2AE3
:1031100060939C0470939D0480939E0490939F04FD
:103120008091870390E09093970480939604809118
:10313000880390E090939904809398048091890388
:1031400090E090939B0480939A04E09086038E2DE8
:1031500090E09093910480939004B09085038B2D20
:1031600090E09093930480939204A09083039090B6
:103170008403A0929404909295048091C504909148
:10318000C604009709F473C001979093C604809316
:10319000C5048091080190910901892B09F481CF20
:1031A00087E694E00E94EB039F92AF921F92BF923A
:1031B0001F92EF927F926F92DF92CF920E94C72B65
:1031C000B60182EF96E00E948F0B80919B048F9353
:1031D00080919A048F93809199048F9380919804A1
:1031E0008F93809197048F93809196048F93E3EF50
:1031F000F1E0FF93EF93DF92CF920E94C72BB601CD
:1032000082EF96E00E948F0B6091A4047091A50458
:103210008091A6049091A7040E94460C8CE20E9423
:1032200006046091A0047091A1048091A204909181
:10323000A3040E94460C8CE20E9406046091A8043C
:103240007091A9048091AA049091AB040E94E40BB0
:103250008CE20E9406048091AC049091AD040E941F
:10326000320C0FB6F894DEBF0FBECDBF1ACF8FEF72
:10327000800F843008F08DCF609197037091980390
:103280008091990390919A030E947D2820E836E965
:1032900048E15BE40E94BA2A6093A0047093A10401
:1032A0008093A2049093A30460919B0370919C036C
:1032B00080919D0390919E030E947D2820E836E92D
:1032C00048E15BE40E94BA2A6093A4047093A504C9
:1032D0008093A6049093A7040350023008F059CFBE
:1032E0006091A3037091A4038091A5039091A6031C
:1032F00028EE33E040E050E00E94B3292093A80478
:103300003093A9044093AA045093AB0442CF943263
:1033100009F04ECE843209F470CE8D3009F448CED7
:10332000A9014F5F5F4F5093FA034093F903275869
:103330003C4FD9018C938A3009F03ACE47585C4F04
:10334000FA01108243E050E063E072E08CE793E022
:103350000E94B92B892B21F480E00E94CD0857CE22
:1033600043E050E067E072E08CE793E00E94B92B05
:10337000892B11F484E0F1CF43E050E06BE072E080
:103380008CE793E00E94B92B892B11F483E0E5CF01
:1033900043E050E06FE072E08CE793E00E94B92BCD
:1033A000892B11F481E0D9CF43E050E063E172E072
:1033B0008CE793E00E94B92B892B11F482E0CDCFEA
:1033C00043E050E067E172E08CE793E00E94B92BA4
:1033D000892B09F01CCE85E0C0CF1111B7CD0E941A
:1033E0000B058090710390907203A0907303B090CE
:1033F0007403681579058A059B0560F189288A2878
:103400008B2809F003C10E940B0560937103709330
:10341000720380937303909374031092FA031092D3
:10342000F903E0906F03F0907003E114F10409F4E4
:10343000F4C0F1E0EF16F10409F4FDC02FEFE21A39
:10344000F20A33E0E316F10408F02CC1F0927003A5
:10345000E0926F030E940B050091FC031091FD03A5
:103460002091FE033091FF036017710782079307D5
:10347000B0F11091FB038091A8049091A904A09150
:10348000AA04B091AB0460E0893E9340A105B10568
:103490006CF48091B204833009F009C18091AC04CE
:1034A0009091AD04049708F402C1612F86E00E9458
:1034B000540460E089E00E9454040E940B056C50A3
:1034C0007E4F8F4F9F4F6093FC037093FD0380935B
:1034D000FE039093FF0381E0811B8093FB038091A7
:1034E000080490910904029719F5EFE6F4E084913D
:1034F000E2E7F5E01491EEE5F5E00491002309F42C
:103500003DC181110E942B04E02FF0E0EE0FFF1F60
:10351000E95BFA4FA591B491EC911E2309F42EC1F9
:1035200068E082E10E947B0810920904109208046E
:103530008091650690916606892B09F0BEC0809146
:1035400070049091710401969093710480937004BB
:1035500020916B0630916C062817390740F0809156
:10356000C7059091C8058F3F910509F020F410928E
:103570007104109270048091700490917104892BF1
:1035800009F057C36BE172E08CE094E00E94B22B2B
:1035900080910A0490910B04019690930B04809300
:1035A0000A0489E3882E86E0982ECE018D967C0150
:1035B0009CEDA92E91E0B92E27E0422E512C3EE140
:1035C000632E32E0732ED40150968C91882309F437
:1035D0008CC21DA6803309F0C6C169E376E0C7013D
:1035E0000E94B22B29E3821626E0920631F066E4AF
:1035F00072E08CE094E00E94A72BB7018CE094E08D
:103600000E94A72B3FEF831A930ADDCF0E940B0580
:1036100068537F4F8F4F9F4FF8CE88E0EEE1F1E087
:10362000D10101900D928A95E1F768E070E0C10147
:103630000E94900803CF8091590690915A06B0E0FD
:10364000A0E04091A8045091A9046091AA0470914F
:10365000AB0484179507A607B70714F586E0809397
:103660006E039091BB04891709F4E8CE9CE2E6E270
:10367000F1E0D10101900D929A95E1F78987FE0161
:1036800033969E01255D3F4F80E09191190F810F88
:103690002E173F07D1F71BA78CA76CE270E0C7CFAE
:1036A00083E0DDCF1092700310926F03D3CE60E001
:1036B00086E00E945404612FFDCE0E940B052091EC
:1036C0006506309166068090040490900504A090F1
:1036D0000604B090070450ED850E57E0951EA11C1E
:1036E000B11C48EE53E0249FF001259FF00D349F5C
:1036F000F00D11248E0E9F1EA11CB11C861697067C
:10370000A806B90668F48091000490910104A09184
:103710000204B0910304892B8A2B8B2B09F40FCF61
:103720008091AC049091AD04892B09F405C150E05F
:1037300040E060919C0470919D0480919E04909162
:103740009F046151710981099109620F731F841FE0
:10375000951F0E941C2A20910501309106016217D5
:10376000730761F07093060160930501209167066D
:10377000309168066217730709F4E1CE0E940B05C9
:1037800000917C0410917D0420917E0430917F048F
:10379000601771078207930708F47FC08091740453
:1037A00090917504909373048093720480917604D1
:1037B00090917704909375048093740480917804B9
:1037C00090917904909377048093760480917A04A1
:1037D00090917B0490937904809378048091070101
:1037E000B0E48B9FC001112480937C0080917A000B
:1037F000806480937A0080917A0086FDFCCF60918E
:10380000780080917900982F862F90937B04809385
:103810007A04609172047091730420917404309161
:103820007504620F731F2091760430917704620F44
:10383000731F2091780430917904620F731F680F11
:10384000791F90E080E00E947B2822E538EB4EE46F
:1038500051E40E94DC2820E030E040EA50E40E947D
:10386000BA2A0E94332B4B017093BA046093B904B7
:1038700086E994E00E94EB03C4010E940E0C0E94B2
:103880000B05605F784D8F4F9F4F60937C04709362
:103890007D0480937E0490937F040E940B05009129
:1038A0008404109185042091860430918704601768
:1038B00071078207930708F432C2809182049091C5
:1038C0008304892B09F409C404EB14E0812C912CA6
:1038D00054018091800490918104881699060CF01F
:1038E00002C2682DCE018D960E94D2098111B8C105
:1038F00060E070E08EEF92EC0E942C2BD8016D936B
:103900007D938D018CE994E00E94EB03C501B40125
:103910000E94E40B64E372E082EF96E00E948F0B5A
:10392000F8013297808191810E940E0CBFEF8B1AB3
:103930009B0AAB0ABB0ACDCF809000049090010493
:10394000A0900204B090030481149104A104B10476
:1039500009F414CF0E940B05681579058A059B05AB
:1039600008F0EDCD0BCF813399F480910B048F9348
:1039700080910A048F937F926F92FF92EF920E9440
:10398000C72B0F900F900F900F900F900F902ACE93
:10399000823301F580919B048F9380919A048F93D9
:1039A000809199048F93809198048F9380919704CC
:1039B0008F93809196048F93E1E2F2E0FF93EF936F
:1039C000FF92EF920E94C72B0FB6F894DEBF0FBE96
:1039D000CDBF08CE833371F46091A4047091A50427
:1039E0008091A6049091A704870125E047E00E94FA
:1039F0006D21F8CD843349F46091A0047091A10445
:103A00008091A2049091A304EFCF8533A9F4809113
:103A1000AB048F938091AA048F938091A9048F9314
:103A20008091A8048F9380E392E09F938F93FF92FD
:103A3000EF920E94C72BC8CF863331F48091AD043A
:103A40008F938091AC0496CF873381F42091AE049C
:103A50003091AF04FDE0F29FC001F39F900D11245F
:103A6000B2010E94802B7F936F9385CF883349F4F6
:103A70008091B1048F938091B0048F93BF92AF92E5
:103A80007CCF893331F48091BA048F938091B9044B
:103A9000F4CFE091B804F0E0813441F0823471F465
:103AA0008091B804E1E0F0E0E81BF109EE0FFF1FA0
:103AB000EC54FB4F81818F938081DFCF833449F4B5
:103AC0006091C1047091C2048091C3049091C404B8
:103AD0008BCF843409F086CD6091BD047091BE0413
:103AE0008091BF049091C0047FCF2CE034E0D901D5
:103AF0000D900020E9F79D012D503440EEE0F4E0F8
:103B00008FEF9FEFAF014C50544042175307BCF466
:103B10004191042E000C550B542F442784279527E0
:103B200048E050E0BC01880F991F77FF04C0B1E264
:103B30008B27B0E19B2741505109A1F7E3CFF90151
:103B4000E45FFB4F4AE2408341E1E5E0F3E0D60168
:103B500001900D924A95E1F7FC01EF2FFF27E295C6
:103B6000EF70EC0DFD1D4081F901E35FFB4F4083D9
:103B700041E1E5E0F3E0D60101900D924A95E1F7CD
:103B8000E92FEF70EC0DFD2DF11D4081F901E25F91
:103B9000FB4F408341E1E5E0F3E0D60101900D9257
:103BA0004A95E1F7FC01A4E0F695E795AA95E1F7BF
:103BB000EF70EC0DFD2DF11D9081F901E15FFB4FE0
:103BC000908391E1E5E0F3E0D60101900D929A95A2
:103BD000E1F78F70F601E80FF11D8081F901E05FD8
:103BE000FB4F8083F901EF5EFB4F8AE080832E5EFE
:103BF0003B4FF90110820CE014E0D8010D90002039
:103C0000E9F78D010D50144080E894E00E94EB0329
:103C10006CE074E082EF96E00E948F0B8DE00E94D2
:103C20000604B8016F5F7F4F8CE094E00E94A70A02
:103C3000A5CD6FEF70E088EC94E00E94A70A8CE8B5
:103C400094E00E94220C1092C8051092C70586E8E5
:103C500094E00E94EB0390E080E00E94320C8ECD55
:103C6000B601CE018D960E943207882309F440CE1A
:103C70002A8130E0322F2227330F330F330F69812F
:103C8000E8E06E9FB0011124262B372B8DA58031E3
:103C9000C1F4688570E08F81AB01481B5109CA01EE
:103CA0009695982F8827979587950E94802B60512D
:103CB000710953E0220F331F5A95E1F72078260F40
:103CC000371F213854EE35070CF412CEB901330FEB
:103CD000880B990B0E947D2820E030E040E05CE3F7
:103CE0000E94DC2809CE0E940B05605F784D8F4F43
:103CF0009F4F60938404709385048093860490930F
:103D0000870481E090E02091820430918304232B8A
:103D100011F090E080E090938304809382040E94ED
:103D20000B0500918C0410918D0420918E0430912C
:103D30008F04601771078207930708F4D5C8809134
:103D4000AC049091AD04049708F4CEC8809173063A
:103D5000882309F4C9C880917A0618160CF0C4C8E3
:103D600080918B068111C0C882E195E00E94220CEF
:103D70007E01EDE2EE0EF11C60916F06709170060F
:103D80008091710690917206870124E048E00E94BC
:103D90006D2166E372E0C6010E94B22BB701C60135
:103DA0000E94A72B68E472E0C6010E94A72B8EEC4C
:103DB00094E00E94220CB60181EB97E00E948F0BE9
:103DC000B60182EF96E00E948F0B64EF71E080E015
:103DD00090E00E94D80481E090918006911180E0EB
:103DE0001F928F9380E692E09F938F93DF92CF9202
:103DF0000E94C72B87EB94E00E94220CB60181EB56
:103E000097E00E948F0BB60182EF96E00E948F0B25
:103E100064EF71E080E090E00E94D8048EEF94E0BF
:103E20000E94220C60E088E00E94540464EF71E07C
:103E300080E090E00E94D8044090A4045090A50433
:103E40006090A6047090A7042091A0043091A10472
:103E50004091A2045091A30426962CAF3DAF4EAFE3
:103E60005FAF26978090A8049090A904A090AA0420
:103E7000B090AB0480917B0690917C06092E000CDB
:103E8000AA0BBB0B0F900F900F900F900F900F90FD
:103E900000917D0610E088159905AA05BB0514F070
:103EA00001E011E0209188043091890450E040E065
:103EB00062E0C7010E941D092091AC043091AD045D
:103EC00050E040E062E0CE018F960E941D092091F3
:103ED000B4043091B5042C593F4F032E000C440B11
:103EE000550B62E0CE01C1960E941D092091B904D4
:103EF0003091BA04032E000C440B550B62E0CE0146
:103F0000C3960E941D0980918A0490918B040097AA
:103F100009F03FC120E030E044E353E426966CAD65
:103F20007DAD8EAD9FAD26970E944E2A20EC3FEFCF
:103F300049E358E40E94DC280E942C2B9B01AC0131
:103F400064E0C6010E941D0923968FAF2397279630
:103F50009FAF2797A301920160E070E084EB92E4A9
:103F60000E944D2A20EC3FEF49EB58E40E94DC28E8
:103F70000E942C2B9B01AC0164E0CE01CD960E94E7
:103F80001D09782E692E85EA94E09F938F93FF9206
:103F9000EF92A8E2B0E8A50194010E94D22920E1A5
:103FA00037E240E050E00E94B3295F934F933F9384
:103FB0002F9327963FAD27973F9323964FAD239797
:103FC0004F936F927F9286E792E09F938F930F9328
:103FD0001F931F9282EA91E09F938F9380917A06BC
:103FE0008F9383E796E09F938F930E94240B6091B9
:103FF00082060FB6F894DEBF0FBECDBF20918804B5
:1040000030918904662371F0062E000C770BC901EC
:104010000E946C2B892B31F4A1E0B0E0B0938B04AB
:10402000A0938A042F5F3F4F309389042093880424
:1040300080918A0490918B04812C912C5401892BBE
:1040400039F580907E0690907F06092C000CAA0816
:10405000BB08809181061816DCF40E94D7212091BC
:104060008106622F022E000C770B0E94802BAC0180
:10407000922F27FD9F5F9595491B510997FD5395F9
:10408000052E000C660B770B840E951EA61EB71E20
:104090008EEE94E00E94EB034AE0C501B4010E9459
:1040A0009E0B85EE94E00E94220C0E940B052B01D2
:1040B0003C01A8EEB3E0A50194010E94D229460E6E
:1040C000571E681E791E40928C0450928D04609297
:1040D0008E0470928F040C947417809195079091C0
:1040E00096070E94FA0640E06CEC8091950790914B
:1040F00096070E94A70640918F0764E48091950778
:10410000909196070E94A70680919107882399F1C4
:10411000E0919007E9508EEE882E82E0982EE330F1
:1041200038F4F0E0EE0FFF1FEE5AFE4F80809180D2
:1041300080919207882331F180918F07811122C0ED
:104140000E940B052B013C01092C000CAA08BB089E
:1041500080919507909196070E945406813059F0FE
:104160000E940B05681979098A099B096415750570
:104170008605970568F30E940B0568517C4F8F4FA9
:104180009F4FB7CDB401990C880B990B0E94D804AE
:10419000F2CF181619060CF04BCF47E050E063E75A
:1041A00076E0C6010E940922F60101900020E9F79D
:1041B000CF0120917A06422F022E000C550B5F93FF
:1041C0002F9321EA34E03F932F931F9224E02F9303
:1041D00001979F938F930E94202280918A0490914F
:1041E0008B040FB6F894DEBF0FBECDBF81309105B2
:1041F00029F5DF92CF928FE892E09F938F931F92E1
:104200001F921F9282EA91E09F938F9380917A068A
:104210008F9383E796E09F938F930E94240B809166
:104220008A0490918B04019690938B0480938A0466
:104230000FB6F894DEBF0FBECDBFFACE8230910527
:1042400029F4DF92CF9289EB92E0D7CF039709F060
:10425000EFCEDF92CF9285ED92E09F938F931F92E6
:104260001F921F9282EA91E09F938F9380917A062A
:104270008F9383E796E09F938F930E94240B109275
:104280008B0410928A04D4CF1D3010F00C9440158A
:104290000C945E152E37310510F00C9407180C9411
:1042A0000F1884E991E09093B2078093B107809151
:1042B0006C0390916D03815B974071F4E091C407AA
:1042C000F091C50790818091C607809589238083EE
:1042D00010926D0310926C030895EF920F931F9349
:1042E000CF93DF93E80134E047FD34E1042E000C66
:1042F000550B57FF03C0519541955109E32E022FED
:10430000242FAE010E942A24CE01DF91CF911F916C
:104310000F91EF9008958F929F92AF92BF92CF929C
:10432000DF92EF92FF92CF93DF93EC016881798166
:104330008A819B81611571058105910521F464E2F3
:1043400079ED8BE597E02DE133EF41E050E00E94FD
:10435000B32949015A019B01AC01A7EAB1E40E94CB
:10436000D2296B017C01ACEEB4EFA50194010E944F
:10437000E029DC01CB018C0D9D1DAE1DBF1DB7FFDB
:1043800003C00197A109B04888839983AA83BB839E
:104390009F77DF91CF91FF90EF90DF90CF90BF900C
:1043A000AF909F908F9008950E948B2108958AE08E
:1043B00091E00E948B210895B0E0A0E080930A0173
:1043C00090930B01A0930C01B0930D010895662703
:1043D00077270C948925FC0188279927E894219157
:1043E0002032E9F3293010F02E30C8F32B3241F09F
:1043F0002D3239F4689404C00E941822820F911D56
:10440000219120532A30C0F31EF4909581959F4F3F
:104410000895FB01DC014150504048F005900D9299
:104420000020C9F701C01D9241505040E0F70895A7
:104430007AE0979F902D879F802D910D11240895EC
:10444000AEE0B0E0E6E2F2E20C94F3290D891E89B9
:104450008F89988D2EE02C831A83098397FF02C0E1
:1044600080E090E801979E838D83AE01455E5F4FAB
:10447000698D7A8DCE0101960E9450224D815E8118
:1044800057FD0AC02F813885421753070CF49A0153
:10449000020F131FF80110822E96E4E00C940F2AED
:1044A000ABE0B0E0E6E5F2E20C94E5297C013B01EB
:1044B0008A01FC0117821682838181FFC8C1CE0167
:1044C00001965C01F7019381F30193FD859193FFC0
:1044D00081913F01882309F453C1853239F493FD5A
:1044E000859193FF81913F01853229F4B70190E0D6
:1044F0000E94E827E7CF912C212C312CFFE1F31506
:1045000038F08B3211F190F4803209F1833229F1C5
:1045100037FC3CC020ED280F2A3050F536FE20C075
:104520008AE0989E200D1124922E06C08D3291F0C3
:10453000803371F7689430F8F30193FD859193FF10
:1045400081913F018111DACF21C0689431F86894DC
:1045500032F8F2CF689433F8EFCF689434F8ECCFA8
:10456000EAE02E9E200D1124222E689435F8E4CF27
:104570008E3229F436FC04C1689436F8DDCF8C36CF
:1045800019F4689437F8D8CF8836B1F2982F9F7D08
:1045900095549330E0F08336A1F18337C1F1833530
:1045A00009F063C02801F2E04F0E511CF801C080F1
:1045B000D180692D70E036FC02C06FEF7FEFC6013D
:1045C0000E94D2274C01689437F882010AC00C5F20
:1045D0001F4FFFE3F98388248394912C6501E894AD
:1045E00037F833FE2DC0522C8114910471F55520FB
:1045F00009F468CFB70180E290E00E94E8275A945E
:10460000F6CFF801808189830E5F1F4FE4CF280128
:10461000F2E04F0E511CF801C080D180692D70E08E
:1046200036FC02C06FEF7FEFC6010E94DD274C0110
:104630008201D5CFB70180E290E00E94E8272A945A
:104640002814190409F0B0F7CECFF60137FC859194
:1046500037FE81916F01B70190E00E94E827511069
:104660005A94F1E08F1A9108BFCF843619F0893639
:1046700009F077C0F80137FE6BC0608171818281DB
:1046800093810C5F1F4FF32DFF763F2E97FF09C0DC
:1046900090958095709561957F4F8F4F9F4F68944F
:1046A00037F82AE030E0A5010E941828C82ECA1861
:1046B0008C2C432C36FE0CC0E89440F8C91440F40E
:1046C00034FE05C032FC03C0F32DFE7E4F2E892C34
:1046D00044FE95C0FE01EC0DF11D8081803309F090
:1046E00087C0242D297E422E842D8870582E43FCAD
:1046F00095C040FE8FC09C2C821418F42C0C922C78
:10470000981844FE91C0B70180E390E00E94E8272A
:1047100042FE09C088E790E041FE02C088E590E0D3
:10472000B7010E94E827C91408F48AC0CA94D12CA2
:104730009FEFC91AD90ACA0CDB1CF60182916F01DE
:10474000B70190E00E94E827AC14BD04B1F74FCF49
:1047500060817181072E000C880B990B0E5F1F4F33
:1047600092CFD32CE894D4F82AE030E0853739F1A1
:10477000232D297FD22E8F3601F148F48835A9F0F8
:10478000F701868197812B96E2E10C94012A80370C
:1047900049F08837A9F7D4FE02C06894D2F820E126
:1047A00030E00DC06894D4F8F6CF34FE03C0822FF9
:1047B0008660D82E20E132E002C028E030E0F80127
:1047C000D7FE0FC060817181828193810C5F1F4F82
:1047D000A5010E941828C82ECA183D2CE89437F865
:1047E00067CF6081718190E080E00E5F1F4FF0CF56
:1047F00042FC02C0839478CF8394839475CF842D38
:10480000867809F471CFF6CFB70180E290E00E947C
:10481000E82783948214C0F3512C73CF522C58187C
:10482000821408F46ECFF8CF842D867809F47BCFFC
:104830008BE241FE80E247FC8DE2B70190E071CF50
:10484000B70180E390E00E94E8279A946CCF8FEF45
:104850009FEF99CFA9E0B0E0E0E3F4E20C94EB29FC
:104860006A01F22EB02E102FFBE3AF2EA01608F433
:104870001BE31F5F012F27E0AE014F5F5F4F0E94D8
:10488000D926BC018981982F9970913009F43FC0D5
:104890009BE2E1FC04C09E2D9170E0FC3AC05E2DCD
:1048A0005071E82FE87083FF46C084E0911101C089
:1048B00083E0EF2DE81B8F1508F0E0E0D6018E2F86
:1048C00020E2552351F1992329F0D6019C93C6018A
:1048D00001966C0196012D5F3F4FE2FE24C08EE4ED
:1048E000D6018C9391E411969C93119712968C9318
:1048F000D9018E2F90E281111BC0E20FF32FF11D21
:1049000010828EEF9FEF2996ECE00C94072A9DE22F
:10491000C6CF90E2C4CF2D9381508111FCCFCE0E33
:10492000D11CE0E0D0CF8EE6D6018C9391E6DBCFB0
:104930009D938150E0CF482F447082FF3DC084E0BA
:10494000911101C083E08F1510F4EF2DE81BD60103
:104950008E2F20E2552309F1992329F0D6019C934B
:10496000C60101966C0196012D5F3F4FE2FE1BC010
:1049700089E4D6018C938EE411968C93119786E48A
:1049800012968C93D9018E2F90E2882309F4B5CF2B
:104990009D938150FACF2D9381508111FCCFCE0E83
:1049A000D11CE0E0D9CF89E6D6018C938EE6119632
:1049B0008C93119786E6E4CF9B0177FF02C030E02D
:1049C00020E0A1E0B0E0911102C0B0E0A0E0F90168
:1049D0003196AE0FBF1F8B2C912CBB2009F461C008
:1049E0005401EFEFAE1ABE0AAA0DBB1DFA161B0644
:1049F00019F014F04F2D4A1B511188C0E3FC59C027
:104A00007601A42FB0E2A1114FC0C40ED11C99238E
:104A100009F45BC040E0D6011196F60190836D0168
:104A2000552309F448C0012F060F9A81582F507161
:104A300084FF03C0913309F4015010160CF047C0F5
:104A4000093008F008E0EEE2FE2E5B01A01AB10882
:104A500085019194819491082F3F320729F4D60162
:104A6000FC92F60131966F016217730794F10217F9
:104A700013077CF5DB01A21BB30BAA24A394B12C72
:104A8000AC0EBD1EAA0DBB1D11968C912150310993
:104A9000D601119628153905F4F0F60180836D01D1
:104AA000DBCFB12CA12CA0CFF701B1937F01A15096
:104AB000AACF9111B0CFD601942F50E302C05D93DD
:104AC00091509111FCCFC40ED11C40E0ACCF01E05D
:104AD000BACF80E3DBCF6217730731F4963388F4E3
:104AE000953311F4552369F0F6018083FD01842F7D
:104AF00090E2811108C0A40FB11D1C9290E080E0EB
:104B000002CF81E3F1CF91938150F3CF911183CF05
:104B10008ACFB0E0A0E0EFE8F5E20C94EB295C016D
:104B20007B016115710519F0DB018D939C93850163
:104B30000F5F1F4FF501D0818D2F90E00E94B127AC
:104B40006C01892BB9F5DD32B9F50F5F1F4FD50127
:104B50001196DC91C1E05801F1E0AF1AB10843E0D1
:104B600050E060E770E0C5010E94BA27892B69F523
:104B7000680182E0C80ED11C45E050E06BE670E0B1
:104B8000C6010E94BA27892B21F4680197E0C90E5B
:104B9000D11CE114F10419F0D701CD92DC9260E050
:104BA00070E080E89FEFC111FFC060E070E080E836
:104BB0009FE7FAC05801BBCFDB3229F485010E5FB5
:104BC0001F4FF501D181C0E0C6CF43E050E068E659
:104BD00070E0C5010E94BA27892BE9F0F80110E0C6
:104BE00000E020E030E0A9015F01B0ED8B2E8D0EDA
:104BF00089E08815C8F19C2E689491F88C2F8870F4
:104C0000C2FF16C0811102C00F5F1F4F3196D50140
:104C1000DC91C92DE9CFE114F10429F00E5F1F4F9B
:104C2000F7011183008360E070E080EC9FE7BCC077
:104C3000882311F001501109A5E0B0E00E94D229AB
:104C40009B01AC01220F331F441F551F280D311D3E
:104C5000411D511D283999E93907490799E159073B
:104C6000A8F2C6609C2ED2CFAEEF8A1206C0C3FD5A
:104C70003CC09C2E689493F8C9CFDF7DD534A9F54C
:104C800080818D3239F4C061DF011296818162E04A
:104C900070E006C0DF018B32C1F3119661E070E075
:104CA00080535D01A61AB70A8A30F8F4E0E8CE1600
:104CB000ECE0DE065CF4B601660F771F660F771F27
:104CC000C60ED71ECC0CDD1CC80ED11C5D01FFEF3B
:104CD000AF1ABF0A8C9180538A30A8F1C4FF03C079
:104CE000D194C194D1080C0D1D1DC1FF09C0E11460
:104CF000F10431F081E0A81AB108D701AD92BC925D
:104D0000CA01B9010E947B28C370C33009F49058CE
:104D10004B015C0120E030E0A9010E947628882345
:104D200009F440C0CFE9D0E017FF05C01195019507
:104D30001109C7E8D0E06E01B8E1CB1AD10880E2D2
:104D4000E82EF12C0FC0D501B1CFFE012591359190
:104D5000459154910E191F09C501B4010E94DC2828
:104D60004B015C01D501C4010E151F0574F7249792
:104D7000F594E794CC16DD06A9F78A2F880F8B2FC0
:104D8000881F8F3F49F020E030E0A901C501B40140
:104D90000E947628811106C082E290E09093D507A8
:104DA0008093D407C501B401CDB7DEB7ECE00C9415
:104DB000072A283008F027E03327DA01990F311D40
:104DC00087FD916000966105710539F432602E5FB0
:104DD0003D9330E32A95E1F708959F3F30F0803806
:104DE0007105610509F03C5F3C5F3D93913008F02F
:104DF0008068911DDF93CF931F930F93FF92EF92E3
:104E0000192F987F9695E92F96959695E90FFF278C
:104E1000E350FF4F99273327EE24FF24A701E70132
:104E200005900894079428F4360FE71EF81E491FD2
:104E3000511D660F771F881F991F0694A1F70590D3
:104E4000079428F4E70EF81E491F561FC11D770F5F
:104E5000881F991F661F0694A1F70590079428F4F0
:104E6000F80E491F561FC71FD11D880F991F661FB7
:104E7000771F0694A1F70590079420F4490F561F59
:104E8000C71FD81F990F661F771F881F0694A9F7A1
:104E900084911095177041F0D695C7955795479511
:104EA000F794E7941A95C1F7E3EAF0E06894159057
:104EB000159135916591959105907FE27395E11873
:104EC000F10A430B560BC90BD009C0F7E10CF11ED8
:104ED000431F561FC91FD01D7EF4703311F48A95ED
:104EE000E6CFE894015030F0080F0AF400270217CB
:104EF00008F4202F2395022F7A3328F079E37D934D
:104F00002A95E9F710C07D932A9589F6069497951E
:104F10006795379517951794E118F10A430B560BCF
:104F2000C90BD00998F023957E9173957A3308F0D8
:104F300070E37C932013B8F77E9170617D9330F01D
:104F4000839571E37D9370E32A95E1F71124EF9047
:104F5000FF900F911F91CF91DF91992787FD909539
:104F6000089591110C944929803219F08950855087
:104F7000C8F70895FB01DC014150504088F08D9145
:104F800081341CF08B350CF4805E659161341CF02B
:104F90006B350CF4605E861B611171F3990B0895FB
:104FA000881BFCCFFC010590615070400110D8F7C0
:104FB000809590958E0F9F1F0895FC016150704061
:104FC00001900110D8F7809590958E0F9F1F08953E
:104FD0000F931F93CF93DF93182F092FEB018B8132
:104FE00081FD09C01FEF0FEF812F902FDF91CF912F
:104FF0001F910F91089582FF14C02E813F818C81F3
:105000009D81281739073CF4E881F981CF01019689
:105010009983888310838E819F8101969F838E83DD
:10502000E3CFE885F985812F0995892BA1F3DACFA4
:10503000FA01AA27283051F1203181F1E8946F93C9
:105040006E7F6E5F7F4F8F4F9F4FAF4FB1E03ED06F
:10505000B4E03CD0670F781F891F9A1FA11D680F0D
:10506000791F8A1F911DA11D6A0F711D811D911D40
:10507000A11D20D009F468943F912AE0269F1124B5
:105080003019305D3193DEF6CF010895462F477019
:10509000405D4193B3E00FD0C9F7F6CF462F4F7074
:1050A000405D4A3318F0495D31FD4052419302D0D2
:1050B000A9F7EACFB4E0A695979587957795679578
:1050C000BA95C9F700976105710508959B01AC0178
:1050D0000A2E06945795479537952795BA95C9F79F
:1050E000620F731F841F951FA01D08950E94B8288A
:1050F00008F481E00895E89409C097FB3EF4909588
:105100008095709561957F4F8F4F9F4F9923A9F0A0
:10511000F92F96E9BB279395F6958795779567952F
:10512000B795F111F8CFFAF4BB0F11F460FF1BC073
:105130006F5F7F4F8F4F9F4F16C0882311F096E906
:1051400011C0772321F09EE8872F762F05C06623B4
:1051500071F096E8862F70E060E02AF09A95660F6D
:10516000771F881FDAF7880F9695879597F9089526
:10517000990F0008550FAA0BE0E8FEEF1616170668
:10518000E807F907C0F012161306E407F50798F0D0
:10519000621B730B840B950B39F40A2661F0232BE9
:1051A000242B252B21F408950A2609F4A140A69565
:1051B0008FEF811D811D08950E94EF280C946329B3
:1051C0000E94552938F00E945C2920F0952311F0A7
:1051D0000C944C290C94522911240C9497290E9468
:1051E000742970F3959FC1F3950F50E0551F629F8E
:1051F000F001729FBB27F00DB11D639FAA27F00D30
:10520000B11DAA1F649F6627B00DA11D661F829F56
:105210002227B00DA11D621F739FB00DA11D621F3B
:10522000839FA00D611D221F749F3327A00D611D58
:10523000231F849F600D211D822F762F6A2F11243A
:105240009F5750409AF0F1F088234AF0EE0FFF1F6D
:10525000BB1F661F771F881F91505040A9F79E3FC4
:10526000510580F00C944C290C9497295F3FE4F38E
:10527000983ED4F3869577956795B795F795E7951A
:105280009F5FC1F7FE2B880F911D9695879597F923
:10529000089599278827089597F99F6780E870E017
:1052A00060E008959FEF80EC089500240A9416169C
:1052B000170618060906089500240A941216130604
:1052C000140605060895092E0394000C11F4882392
:1052D00052F0BB0F40F4BF2B11F460FF04C06F5FAE
:1052E0007F4F8F4F9F4F089557FD9058440F551F84
:1052F00059F05F3F71F04795880F97FB991F61F058
:105300009F3F79F087950895121613061406551FCE
:10531000F2CF4695F1DF08C0161617061806991F3A
:10532000F1CF86957105610508940895E894BB272F
:1053300066277727CB0197F90895F999FECF92BD9B
:1053400081BDF89A992780B50895262FF999FECF47
:105350001FBA92BD81BD20BD0FB6F894FA9AF99A92
:105360000FBE01960895052E97FB1EF400940E942F
:10537000CA2957FD07D00E941C2A07FC03D04EF40F
:105380000C94CA2950954095309521953F4F4F4F29
:105390005F4F089590958095709561957F4F8F4FE1
:1053A0009F4F08950E943E2AA59F900DB49F900D97
:1053B000A49F800D911D11240895B7FF0C94D2294C
:1053C0000E94D229821B930B08952F923F924F92F5
:1053D0005F926F927F928F929F92AF92BF92CF9285
:1053E000DF92EF92FF920F931F93CF93DF93CDB78E
:1053F000DEB7CA1BDB0B0FB6F894DEBF0FBECDBF06
:1054000009942A88398848885F846E847D848C84D6
:105410009B84AA84B984C884DF80EE80FD800C81DF
:105420001B81AA81B981CE0FD11D0FB6F894DEBFC2
:105430000FBECDBFED010895A1E21A2EAA1BBB1B22
:10544000FD010DC0AA1FBB1FEE1FFF1FA217B30750
:10545000E407F50720F0A21BB30BE40BF50B661F66
:10546000771F881F991F1A9469F76095709580952A
:1054700090959B01AC01BD01CF010895A29FB001A1
:10548000B39FC001A39F700D811D1124911DB29F78
:10549000700D811D1124911D08955058BB27AA2716
:1054A0000E94652A0C9463290E94552938F00E94B5
:1054B0005C2920F039F49F3F19F426F40C9452290A
:1054C0000EF4E095E7FB0C944C29E92F0E94742917
:1054D00058F3BA17620773078407950720F079F429
:1054E000A6F50C9496290EF4E0950B2EBA2FA02D5C
:1054F0000B01B90190010C01CA01A0011124FF2781
:10550000591B99F0593F50F4503E68F11A16F0407B
:10551000A22F232F342F4427585FF3CF469537957A
:105520002795A795F0405395C9F77EF41F16BA0B3F
:10553000620B730B840BBAF09150A1F0FF0FBB1FED
:10554000661F771F881FC2F70EC0BA0F621F731F36
:10555000841F48F4879577956795B795F7959E3F93
:1055600008F0B0CF9395880F08F09927EE0F979524
:10557000879508950E94CE2A0C9463290E945C2985
:1055800058F00E94552940F029F45F3F29F00C940F
:105590004C2951110C9497290C9452290E9474297A
:1055A00068F39923B1F3552391F3951B550BBB2752
:1055B000AA2762177307840738F09F5F5F4F220F97
:1055C000331F441FAA1FA9F335D00E2E3AF0E0E88E
:1055D00032D091505040E695001CCAF72BD0FE2FD8
:1055E00029D0660F771F881FBB1F2617370748076C
:1055F000AB07B0E809F0BB0B802DBF01FF27935824
:105600005F4F3AF09E3F510578F00C944C290C9472
:1056100097295F3FE4F3983ED4F386957795679595
:10562000B795F7959F5FC9F7880F911D9695879558
:1056300097F90895E1E0660F771F881FBB1F621777
:1056400073078407BA0720F0621B730B840BBA0B35
:10565000EE1F88F7E09508950E94332B6894B111EE
:105660000C94972908950E947C2988F09F5798F000
:10567000B92F9927B751B0F0E1F0660F771F881F57
:10568000991F1AF0BA95C9F714C0B13091F00E9471
:105690009629B1E008950C949629672F782F8827D2
:1056A000B85F39F0B93FCCF3869577956795B39598
:1056B000D9F73EF490958095709561957F4F8F4F07
:1056C0009F4F08950E94B82808F48FEF08950E9414
:1056D000B828880B990B0895AA1BBB1B51E107C082
:1056E000AA1FBB1FA617B70710F0A61BB70B881F72
:1056F000991F5A95A9F780959095BC01CD01089501
:1057000097FB072E16F4009407D077FD09D00E946E
:105710006C2B07FC05D03EF4909581959F4F089522
:10572000709561957F4F0895EE0FFF1F0590F491DE
:10573000E02D0994FB01DC0104C08D9101908019DA
:1057400021F441505040C8F7881B990B0895FB0184
:10575000DC010D900020E9F7119701900D920020D7
:10576000E1F70895FB01DC0101900D920020E1F7C3
:105770000895FB01DC014150504030F08D910190C3
:10578000801919F40020B9F7881B990B0895AEE031
:10579000B0E0EDECFBE20C94F3290D891E8986E064
:1057A0008C831A8309838FEF9FE79E838D83AE01DD
:1057B000475E5F4F6F89788DCE0101960E9450221F
:1057C0002F813885020F131FF80110822E96E4E016
:1057D0000C940F2AAEE0B0E0E0EFFBE20C94F52968
:1057E00085E08C838B899C899A838983AE01495E8D
:1057F0005F4F6D897E89CE0101960E94BA2D2E964B
:10580000E2E00C94112AAEE0B0E0E9E0FCE20C9496
:10581000F3298C01FA0186E08C831A83098377FFD0
:1058200002C060E070E8615071097E836D83A90158
:10583000BF01CE0101960E9450224D815E8157FD2D
:105840000AC02F813885421753070CF49A01020FC2
:10585000131FF80110822E96E4E00C940F2A20FD0D
:1058600009C0FC0123FD05C022FF02C073836283CF
:1058700051834083089544FD17C046FD1DC0DB01E0
:10588000FC01AA0FBB1FEE1FFF1F1094D1F76A0F78
:105890007B1F8E1F9F1F660F771F881F991F620F28
:1058A000711D811D911D089533E0660F771F881FBC
:1058B000991F3150D1F7F3CF34E0F7CF0F931F93F7
:1058C000CF93DF938C01C8010E94CA2EEC0197FD93
:1058D00008C00E94B127892BB1F7B801CE010E9400
:1058E000062FCE01DF91CF911F910F9108958F92D6
:1058F0009F92AF92BF92EF92FF920F931F93CF931D
:10590000DF938C01D62F7A01B22E0E94CA2E9C0101
:1059100033272B32310529F02D323105A9F4689453
:10592000B7F8D15061F480E0DF91CF911F910F91D2
:10593000FF90EF90BF90AF909F908F900895C80117
:105940000E94CA2E97FDEFCFCB2DCD7F2B2D20733C
:10595000F9F48033E9F4AA24AA94AD0E89F0C801C1
:105960000E94CA2E97FD0CC0282F2F7D283561F488
:10597000C264D25029F0C8010E94CA2E97FF08C005
:10598000812C912C54011BC0B6FE2BC0C260DA2DB5
:10599000812C912C540120ED280F283028F1C4FDD2
:1059A00009C02A3008F1C6FF05C02F7D3FEE320F37
:1059B0003630C8F0B8010E94062FC1FFB4CFC7FF30
:1059C00008C0B094A09490948094811C911CA11C58
:1059D000B11C2C2FB501A401C7010E942F2C81E01E
:1059E000A3CFC261D4CF27504C2FC501B4010E9470
:1059F0003B2C4B015C01C260D15009F3C8010E94ED
:105A0000CA2E97FFC8CFD9CFA0E2B0E0EAE0FDE20E
:105A10000C94EA295C01962E7A01CE0101966C0164
:105A200080E2F60111928A95E9F7F501B3818901C7
:105A300030E020E0712C812CA0E041E050E0F80142
:105A4000B3FD8591B3FF8191982F8F01811107C01C
:105A500010E000E0C801A096EDE00C94062A8E3517
:105A600019F42115310541F1A21713064CF48D35B7
:105A700049F18D3229F4811006C0882483941DC019
:105A8000882009F464C0E92FE695E695E695EC0DCB
:105A9000FD2DF11D892F8770BA0101C0660F8A950F
:105AA000EAF78081682B6083791651F0971510F41E
:105AB0009F5FE9CF9150E7CFA1E02F5F3F4FBFCF6E
:105AC000812CFBCF882019F08E8180628E83AA23DF
:105AD00059F0F6019E012F5D3F4F808180958083B4
